{
  "_format": "hh-sol-artifact-1",
  "contractName": "RoleControl",
  "sourceName": "contracts/RoleControl.sol",
  "abi": [
    {
      "inputs": [],
      "stateMutability": "nonpayable",
      "type": "constructor"
    },
    {
      "anonymous": false,
      "inputs": [
        {
          "indexed": true,
          "internalType": "bytes32",
          "name": "role",
          "type": "bytes32"
        },
        {
          "indexed": true,
          "internalType": "bytes32",
          "name": "previousAdminRole",
          "type": "bytes32"
        },
        {
          "indexed": true,
          "internalType": "bytes32",
          "name": "newAdminRole",
          "type": "bytes32"
        }
      ],
      "name": "RoleAdminChanged",
      "type": "event"
    },
    {
      "anonymous": false,
      "inputs": [
        {
          "indexed": true,
          "internalType": "bytes32",
          "name": "role",
          "type": "bytes32"
        },
        {
          "indexed": true,
          "internalType": "address",
          "name": "account",
          "type": "address"
        },
        {
          "indexed": true,
          "internalType": "address",
          "name": "sender",
          "type": "address"
        }
      ],
      "name": "RoleGranted",
      "type": "event"
    },
    {
      "anonymous": false,
      "inputs": [
        {
          "indexed": true,
          "internalType": "bytes32",
          "name": "role",
          "type": "bytes32"
        },
        {
          "indexed": true,
          "internalType": "address",
          "name": "account",
          "type": "address"
        },
        {
          "indexed": true,
          "internalType": "address",
          "name": "sender",
          "type": "address"
        }
      ],
      "name": "RoleRevoked",
      "type": "event"
    },
    {
      "inputs": [],
      "name": "DEFAULT_ADMIN_ROLE",
      "outputs": [
        {
          "internalType": "bytes32",
          "name": "",
          "type": "bytes32"
        }
      ],
      "stateMutability": "view",
      "type": "function"
    },
    {
      "inputs": [],
      "name": "OPERATOR_ROLE",
      "outputs": [
        {
          "internalType": "bytes32",
          "name": "",
          "type": "bytes32"
        }
      ],
      "stateMutability": "view",
      "type": "function"
    },
    {
      "inputs": [
        {
          "internalType": "address",
          "name": "_admin",
          "type": "address"
        }
      ],
      "name": "addAdmin",
      "outputs": [],
      "stateMutability": "nonpayable",
      "type": "function"
    },
    {
      "inputs": [
        {
          "internalType": "address",
          "name": "_operator",
          "type": "address"
        }
      ],
      "name": "addOperator",
      "outputs": [],
      "stateMutability": "nonpayable",
      "type": "function"
    },
    {
      "inputs": [
        {
          "internalType": "bytes32",
          "name": "role",
          "type": "bytes32"
        }
      ],
      "name": "getRoleAdmin",
      "outputs": [
        {
          "internalType": "bytes32",
          "name": "",
          "type": "bytes32"
        }
      ],
      "stateMutability": "view",
      "type": "function"
    },
    {
      "inputs": [
        {
          "internalType": "bytes32",
          "name": "role",
          "type": "bytes32"
        },
        {
          "internalType": "address",
          "name": "account",
          "type": "address"
        }
      ],
      "name": "grantRole",
      "outputs": [],
      "stateMutability": "nonpayable",
      "type": "function"
    },
    {
      "inputs": [
        {
          "internalType": "bytes32",
          "name": "role",
          "type": "bytes32"
        },
        {
          "internalType": "address",
          "name": "account",
          "type": "address"
        }
      ],
      "name": "hasRole",
      "outputs": [
        {
          "internalType": "bool",
          "name": "",
          "type": "bool"
        }
      ],
      "stateMutability": "view",
      "type": "function"
    },
    {
      "inputs": [
        {
          "internalType": "address",
          "name": "_admin",
          "type": "address"
        }
      ],
      "name": "removeAdmin",
      "outputs": [],
      "stateMutability": "nonpayable",
      "type": "function"
    },
    {
      "inputs": [
        {
          "internalType": "address",
          "name": "_operator",
          "type": "address"
        }
      ],
      "name": "removeOperator",
      "outputs": [],
      "stateMutability": "nonpayable",
      "type": "function"
    },
    {
      "inputs": [
        {
          "internalType": "bytes32",
          "name": "role",
          "type": "bytes32"
        },
        {
          "internalType": "address",
          "name": "account",
          "type": "address"
        }
      ],
      "name": "renounceRole",
      "outputs": [],
      "stateMutability": "nonpayable",
      "type": "function"
    },
    {
      "inputs": [
        {
          "internalType": "bytes32",
          "name": "role",
          "type": "bytes32"
        },
        {
          "internalType": "address",
          "name": "account",
          "type": "address"
        }
      ],
      "name": "revokeRole",
      "outputs": [],
      "stateMutability": "nonpayable",
      "type": "function"
    },
    {
      "inputs": [
        {
          "internalType": "bytes4",
          "name": "interfaceId",
          "type": "bytes4"
        }
      ],
      "name": "supportsInterface",
      "outputs": [
        {
          "internalType": "bool",
          "name": "",
          "type": "bool"
        }
      ],
      "stateMutability": "view",
      "type": "function"
    }
  ],
  "bytecode": "0x608060405234801561001057600080fd5b506100246000801b3361002960201b60201c565b61019b565b610039828261003d60201b60201c565b5050565b61004d828261012960201b60201c565b61012557600160008084815260200190815260200160002060000160008373ffffffffffffffffffffffffffffffffffffffff1673ffffffffffffffffffffffffffffffffffffffff16815260200190815260200160002060006101000a81548160ff0219169083151502179055506100ca61019360201b60201c565b73ffffffffffffffffffffffffffffffffffffffff168173ffffffffffffffffffffffffffffffffffffffff16837f2f8788117e7eff1d82e926ec794901d17c78024a50270940304540a733656f0d60405160405180910390a45b5050565b600080600084815260200190815260200160002060000160008373ffffffffffffffffffffffffffffffffffffffff1673ffffffffffffffffffffffffffffffffffffffff16815260200190815260200160002060009054906101000a900460ff16905092915050565b600033905090565b611233806101aa6000396000f3fe608060405234801561001057600080fd5b50600436106100b45760003560e01c806391d148541161007157806391d14854146101895780639870d7fe146101b9578063a217fddf146101d5578063ac8a584a146101f3578063d547741f1461020f578063f5b541a61461022b576100b4565b806301ffc9a7146100b95780631785f53c146100e9578063248a9ca3146101055780632f2ff15d1461013557806336568abe14610151578063704802751461016d575b600080fd5b6100d360048036038101906100ce9190610b78565b610249565b6040516100e09190610bc0565b60405180910390f35b61010360048036038101906100fe9190610c39565b6102c3565b005b61011f600480360381019061011a9190610c9c565b61031f565b60405161012c9190610cd8565b60405180910390f35b61014f600480360381019061014a9190610cf3565b61033e565b005b61016b60048036038101906101669190610cf3565b61035f565b005b61018760048036038101906101829190610c39565b6103e2565b005b6101a3600480360381019061019e9190610cf3565b61043e565b6040516101b09190610bc0565b60405180910390f35b6101d360048036038101906101ce9190610c39565b6104a8565b005b6101dd610521565b6040516101ea9190610cd8565b60405180910390f35b61020d60048036038101906102089190610c39565b610528565b005b61022960048036038101906102249190610cf3565b6105a1565b005b6102336105c2565b6040516102409190610cd8565b60405180910390f35b60007f7965db0b000000000000000000000000000000000000000000000000000000007bffffffffffffffffffffffffffffffffffffffffffffffffffffffff1916827bffffffffffffffffffffffffffffffffffffffffffffffffffffffff191614806102bc57506102bb826105e6565b5b9050919050565b6102d06000801b3361043e565b61030f576040517f08c379a000000000000000000000000000000000000000000000000000000000815260040161030690610db6565b60405180910390fd5b61031c6000801b826105a1565b50565b6000806000838152602001908152602001600020600101549050919050565b6103478261031f565b61035081610650565b61035a8383610664565b505050565b610367610744565b73ffffffffffffffffffffffffffffffffffffffff168173ffffffffffffffffffffffffffffffffffffffff16146103d4576040517f08c379a00000000000000000000000000000000000000000000000000000000081526004016103cb90610e48565b60405180910390fd5b6103de828261074c565b5050565b6103ef6000801b3361043e565b61042e576040517f08c379a000000000000000000000000000000000000000000000000000000000815260040161042590610db6565b60405180910390fd5b61043b6000801b8261033e565b50565b600080600084815260200190815260200160002060000160008373ffffffffffffffffffffffffffffffffffffffff1673ffffffffffffffffffffffffffffffffffffffff16815260200190815260200160002060009054906101000a900460ff16905092915050565b6104b56000801b3361043e565b6104f4576040517f08c379a00000000000000000000000000000000000000000000000000000000081526004016104eb90610db6565b60405180910390fd5b61051e7f46a52cf33029de9f84853745a87af28464c80bf0346df1b32e205fc73319f6228261033e565b50565b6000801b81565b6105356000801b3361043e565b610574576040517f08c379a000000000000000000000000000000000000000000000000000000000815260040161056b90610db6565b60405180910390fd5b61059e7f46a52cf33029de9f84853745a87af28464c80bf0346df1b32e205fc73319f622826105a1565b50565b6105aa8261031f565b6105b381610650565b6105bd838361074c565b505050565b7f46a52cf33029de9f84853745a87af28464c80bf0346df1b32e205fc73319f62281565b60007f01ffc9a7000000000000000000000000000000000000000000000000000000007bffffffffffffffffffffffffffffffffffffffffffffffffffffffff1916827bffffffffffffffffffffffffffffffffffffffffffffffffffffffff1916149050919050565b6106618161065c610744565b61082d565b50565b61066e828261043e565b61074057600160008084815260200190815260200160002060000160008373ffffffffffffffffffffffffffffffffffffffff1673ffffffffffffffffffffffffffffffffffffffff16815260200190815260200160002060006101000a81548160ff0219169083151502179055506106e5610744565b73ffffffffffffffffffffffffffffffffffffffff168173ffffffffffffffffffffffffffffffffffffffff16837f2f8788117e7eff1d82e926ec794901d17c78024a50270940304540a733656f0d60405160405180910390a45b5050565b600033905090565b610756828261043e565b1561082957600080600084815260200190815260200160002060000160008373ffffffffffffffffffffffffffffffffffffffff1673ffffffffffffffffffffffffffffffffffffffff16815260200190815260200160002060006101000a81548160ff0219169083151502179055506107ce610744565b73ffffffffffffffffffffffffffffffffffffffff168173ffffffffffffffffffffffffffffffffffffffff16837ff6391f5c32d9c69d2a47ea670b442974b53935d1edc7fd64eb21e047a839171b60405160405180910390a45b5050565b610837828261043e565b6108ae57610844816108b2565b6108528360001c60206108df565b604051602001610863929190610f7a565b6040516020818303038152906040526040517f08c379a00000000000000000000000000000000000000000000000000000000081526004016108a59190610ffe565b60405180910390fd5b5050565b60606108d88273ffffffffffffffffffffffffffffffffffffffff16601460ff166108df565b9050919050565b6060600060028360026108f29190611059565b6108fc91906110b3565b67ffffffffffffffff81111561091557610914611109565b5b6040519080825280601f01601f1916602001820160405280156109475781602001600182028036833780820191505090505b5090507f30000000000000000000000000000000000000000000000000000000000000008160008151811061097f5761097e611138565b5b60200101907effffffffffffffffffffffffffffffffffffffffffffffffffffffffffffff1916908160001a9053507f7800000000000000000000000000000000000000000000000000000000000000816001815181106109e3576109e2611138565b5b60200101907effffffffffffffffffffffffffffffffffffffffffffffffffffffffffffff1916908160001a90535060006001846002610a239190611059565b610a2d91906110b3565b90505b6001811115610acd577f3031323334353637383961626364656600000000000000000000000000000000600f861660108110610a6f57610a6e611138565b5b1a60f81b828281518110610a8657610a85611138565b5b60200101907effffffffffffffffffffffffffffffffffffffffffffffffffffffffffffff1916908160001a905350600485901c945080610ac690611167565b9050610a30565b5060008414610b11576040517f08c379a0000000000000000000000000000000000000000000000000000000008152600401610b08906111dd565b60405180910390fd5b8091505092915050565b600080fd5b60007fffffffff0000000000000000000000000000000000000000000000000000000082169050919050565b610b5581610b20565b8114610b6057600080fd5b50565b600081359050610b7281610b4c565b92915050565b600060208284031215610b8e57610b8d610b1b565b5b6000610b9c84828501610b63565b91505092915050565b60008115159050919050565b610bba81610ba5565b82525050565b6000602082019050610bd56000830184610bb1565b92915050565b600073ffffffffffffffffffffffffffffffffffffffff82169050919050565b6000610c0682610bdb565b9050919050565b610c1681610bfb565b8114610c2157600080fd5b50565b600081359050610c3381610c0d565b92915050565b600060208284031215610c4f57610c4e610b1b565b5b6000610c5d84828501610c24565b91505092915050565b6000819050919050565b610c7981610c66565b8114610c8457600080fd5b50565b600081359050610c9681610c70565b92915050565b600060208284031215610cb257610cb1610b1b565b5b6000610cc084828501610c87565b91505092915050565b610cd281610c66565b82525050565b6000602082019050610ced6000830184610cc9565b92915050565b60008060408385031215610d0a57610d09610b1b565b5b6000610d1885828601610c87565b9250506020610d2985828601610c24565b9150509250929050565b600082825260208201905092915050565b7f4f6e6c792061646d696e2063616e206578656375746520746869732066756e6360008201527f74696f6e00000000000000000000000000000000000000000000000000000000602082015250565b6000610da0602483610d33565b9150610dab82610d44565b604082019050919050565b60006020820190508181036000830152610dcf81610d93565b9050919050565b7f416363657373436f6e74726f6c3a2063616e206f6e6c792072656e6f756e636560008201527f20726f6c657320666f722073656c660000000000000000000000000000000000602082015250565b6000610e32602f83610d33565b9150610e3d82610dd6565b604082019050919050565b60006020820190508181036000830152610e6181610e25565b9050919050565b600081905092915050565b7f416363657373436f6e74726f6c3a206163636f756e7420000000000000000000600082015250565b6000610ea9601783610e68565b9150610eb482610e73565b601782019050919050565b600081519050919050565b60005b83811015610ee8578082015181840152602081019050610ecd565b83811115610ef7576000848401525b50505050565b6000610f0882610ebf565b610f128185610e68565b9350610f22818560208601610eca565b80840191505092915050565b7f206973206d697373696e6720726f6c6520000000000000000000000000000000600082015250565b6000610f64601183610e68565b9150610f6f82610f2e565b601182019050919050565b6000610f8582610e9c565b9150610f918285610efd565b9150610f9c82610f57565b9150610fa88284610efd565b91508190509392505050565b6000601f19601f8301169050919050565b6000610fd082610ebf565b610fda8185610d33565b9350610fea818560208601610eca565b610ff381610fb4565b840191505092915050565b600060208201905081810360008301526110188184610fc5565b905092915050565b6000819050919050565b7f4e487b7100000000000000000000000000000000000000000000000000000000600052601160045260246000fd5b600061106482611020565b915061106f83611020565b9250817fffffffffffffffffffffffffffffffffffffffffffffffffffffffffffffffff04831182151516156110a8576110a761102a565b5b828202905092915050565b60006110be82611020565b91506110c983611020565b9250827fffffffffffffffffffffffffffffffffffffffffffffffffffffffffffffffff038211156110fe576110fd61102a565b5b828201905092915050565b7f4e487b7100000000000000000000000000000000000000000000000000000000600052604160045260246000fd5b7f4e487b7100000000000000000000000000000000000000000000000000000000600052603260045260246000fd5b600061117282611020565b915060008214156111865761118561102a565b5b600182039050919050565b7f537472696e67733a20686578206c656e67746820696e73756666696369656e74600082015250565b60006111c7602083610d33565b91506111d282611191565b602082019050919050565b600060208201905081810360008301526111f6816111ba565b905091905056fea2646970667358221220460546e82423d377bd1a88ca13a71a74b32fff3ae0ee9745ff233f0b34cb41c064736f6c634300080b0033",
  "linkReferences": {},
  "deployedLinkReferences": {}
}