{
  "_format": "hh-sol-artifact-1",
  "contractName": "SnackclubTournamentsPayout",
  "sourceName": "contracts/SnackclubTournamentsPayout.sol",
  "abi": [
    {
      "anonymous": false,
      "inputs": [
        {
          "indexed": true,
          "internalType": "address",
          "name": "to",
          "type": "address"
        },
        {
          "indexed": false,
          "internalType": "uint256",
          "name": "amount",
          "type": "uint256"
        },
        {
          "indexed": false,
          "internalType": "address",
          "name": "tokenContract",
          "type": "address"
        }
      ],
      "name": "RewardClaimed",
      "type": "event"
    },
    {
      "anonymous": false,
      "inputs": [
        {
          "indexed": true,
          "internalType": "bytes32",
          "name": "role",
          "type": "bytes32"
        },
        {
          "indexed": true,
          "internalType": "bytes32",
          "name": "previousAdminRole",
          "type": "bytes32"
        },
        {
          "indexed": true,
          "internalType": "bytes32",
          "name": "newAdminRole",
          "type": "bytes32"
        }
      ],
      "name": "RoleAdminChanged",
      "type": "event"
    },
    {
      "anonymous": false,
      "inputs": [
        {
          "indexed": true,
          "internalType": "bytes32",
          "name": "role",
          "type": "bytes32"
        },
        {
          "indexed": true,
          "internalType": "address",
          "name": "account",
          "type": "address"
        },
        {
          "indexed": true,
          "internalType": "address",
          "name": "sender",
          "type": "address"
        }
      ],
      "name": "RoleGranted",
      "type": "event"
    },
    {
      "anonymous": false,
      "inputs": [
        {
          "indexed": true,
          "internalType": "bytes32",
          "name": "role",
          "type": "bytes32"
        },
        {
          "indexed": true,
          "internalType": "address",
          "name": "account",
          "type": "address"
        },
        {
          "indexed": true,
          "internalType": "address",
          "name": "sender",
          "type": "address"
        }
      ],
      "name": "RoleRevoked",
      "type": "event"
    },
    {
      "inputs": [],
      "name": "DEFAULT_ADMIN_ROLE",
      "outputs": [
        {
          "internalType": "bytes32",
          "name": "",
          "type": "bytes32"
        }
      ],
      "stateMutability": "view",
      "type": "function"
    },
    {
      "inputs": [],
      "name": "OPERATOR_ROLE",
      "outputs": [
        {
          "internalType": "bytes32",
          "name": "",
          "type": "bytes32"
        }
      ],
      "stateMutability": "view",
      "type": "function"
    },
    {
      "inputs": [
        {
          "internalType": "address",
          "name": "_admin",
          "type": "address"
        }
      ],
      "name": "addAdmin",
      "outputs": [],
      "stateMutability": "nonpayable",
      "type": "function"
    },
    {
      "inputs": [
        {
          "internalType": "address",
          "name": "_operator",
          "type": "address"
        }
      ],
      "name": "addOperator",
      "outputs": [],
      "stateMutability": "nonpayable",
      "type": "function"
    },
    {
      "inputs": [
        {
          "internalType": "string",
          "name": "discriminator",
          "type": "string"
        }
      ],
      "name": "claimReward",
      "outputs": [],
      "stateMutability": "nonpayable",
      "type": "function"
    },
    {
      "inputs": [
        {
          "internalType": "uint256",
          "name": "amount",
          "type": "uint256"
        },
        {
          "internalType": "address",
          "name": "tokenContract",
          "type": "address"
        }
      ],
      "name": "depositToken",
      "outputs": [],
      "stateMutability": "nonpayable",
      "type": "function"
    },
    {
      "inputs": [
        {
          "internalType": "bytes32",
          "name": "role",
          "type": "bytes32"
        }
      ],
      "name": "getRoleAdmin",
      "outputs": [
        {
          "internalType": "bytes32",
          "name": "",
          "type": "bytes32"
        }
      ],
      "stateMutability": "view",
      "type": "function"
    },
    {
      "inputs": [
        {
          "internalType": "address",
          "name": "tokenContract",
          "type": "address"
        }
      ],
      "name": "getTokenBalance",
      "outputs": [
        {
          "internalType": "uint256",
          "name": "",
          "type": "uint256"
        }
      ],
      "stateMutability": "view",
      "type": "function"
    },
    {
      "inputs": [
        {
          "internalType": "bytes32",
          "name": "role",
          "type": "bytes32"
        },
        {
          "internalType": "address",
          "name": "account",
          "type": "address"
        }
      ],
      "name": "grantRole",
      "outputs": [],
      "stateMutability": "nonpayable",
      "type": "function"
    },
    {
      "inputs": [
        {
          "internalType": "bytes32",
          "name": "role",
          "type": "bytes32"
        },
        {
          "internalType": "address",
          "name": "account",
          "type": "address"
        }
      ],
      "name": "hasRole",
      "outputs": [
        {
          "internalType": "bool",
          "name": "",
          "type": "bool"
        }
      ],
      "stateMutability": "view",
      "type": "function"
    },
    {
      "inputs": [
        {
          "internalType": "address",
          "name": "_address",
          "type": "address"
        },
        {
          "internalType": "string",
          "name": "discriminator",
          "type": "string"
        }
      ],
      "name": "hashAddressAndString",
      "outputs": [
        {
          "internalType": "bytes32",
          "name": "",
          "type": "bytes32"
        }
      ],
      "stateMutability": "pure",
      "type": "function"
    },
    {
      "inputs": [
        {
          "internalType": "address",
          "name": "_admin",
          "type": "address"
        }
      ],
      "name": "removeAdmin",
      "outputs": [],
      "stateMutability": "nonpayable",
      "type": "function"
    },
    {
      "inputs": [
        {
          "internalType": "address",
          "name": "_operator",
          "type": "address"
        }
      ],
      "name": "removeOperator",
      "outputs": [],
      "stateMutability": "nonpayable",
      "type": "function"
    },
    {
      "inputs": [
        {
          "internalType": "string",
          "name": "discriminator",
          "type": "string"
        },
        {
          "internalType": "address",
          "name": "receiver",
          "type": "address"
        }
      ],
      "name": "renewReward",
      "outputs": [],
      "stateMutability": "nonpayable",
      "type": "function"
    },
    {
      "inputs": [
        {
          "internalType": "bytes32",
          "name": "role",
          "type": "bytes32"
        },
        {
          "internalType": "address",
          "name": "account",
          "type": "address"
        }
      ],
      "name": "renounceRole",
      "outputs": [],
      "stateMutability": "nonpayable",
      "type": "function"
    },
    {
      "inputs": [
        {
          "internalType": "bytes32",
          "name": "role",
          "type": "bytes32"
        },
        {
          "internalType": "address",
          "name": "account",
          "type": "address"
        }
      ],
      "name": "revokeRole",
      "outputs": [],
      "stateMutability": "nonpayable",
      "type": "function"
    },
    {
      "inputs": [
        {
          "internalType": "bytes32",
          "name": "",
          "type": "bytes32"
        }
      ],
      "name": "reward",
      "outputs": [
        {
          "internalType": "uint256",
          "name": "amount",
          "type": "uint256"
        },
        {
          "internalType": "address",
          "name": "tokenContract",
          "type": "address"
        },
        {
          "internalType": "uint256",
          "name": "claimableAt",
          "type": "uint256"
        }
      ],
      "stateMutability": "view",
      "type": "function"
    },
    {
      "inputs": [
        {
          "components": [
            {
              "internalType": "string",
              "name": "discriminator",
              "type": "string"
            },
            {
              "internalType": "uint256",
              "name": "amount",
              "type": "uint256"
            },
            {
              "internalType": "address",
              "name": "tokenContract",
              "type": "address"
            },
            {
              "internalType": "uint256",
              "name": "claimableAt",
              "type": "uint256"
            },
            {
              "internalType": "address",
              "name": "receiver",
              "type": "address"
            }
          ],
          "internalType": "struct RewardControl.RewardArgs[]",
          "name": "rewards",
          "type": "tuple[]"
        }
      ],
      "name": "storeRewards",
      "outputs": [],
      "stateMutability": "nonpayable",
      "type": "function"
    },
    {
      "inputs": [
        {
          "internalType": "bytes4",
          "name": "interfaceId",
          "type": "bytes4"
        }
      ],
      "name": "supportsInterface",
      "outputs": [
        {
          "internalType": "bool",
          "name": "",
          "type": "bool"
        }
      ],
      "stateMutability": "view",
      "type": "function"
    },
    {
      "inputs": [
        {
          "internalType": "uint256",
          "name": "amount",
          "type": "uint256"
        },
        {
          "internalType": "address",
          "name": "tokenContract",
          "type": "address"
        }
      ],
      "name": "withdraw",
      "outputs": [],
      "stateMutability": "nonpayable",
      "type": "function"
    }
  ],
  "bytecode": "0x60806040523480156200001157600080fd5b50620000276000801b336200002d60201b60201c565b620001a6565b6200003f82826200004360201b60201c565b5050565b6200005582826200013460201b60201c565b6200013057600160008084815260200190815260200160002060000160008373ffffffffffffffffffffffffffffffffffffffff1673ffffffffffffffffffffffffffffffffffffffff16815260200190815260200160002060006101000a81548160ff021916908315150217905550620000d56200019e60201b60201c565b73ffffffffffffffffffffffffffffffffffffffff168173ffffffffffffffffffffffffffffffffffffffff16837f2f8788117e7eff1d82e926ec794901d17c78024a50270940304540a733656f0d60405160405180910390a45b5050565b600080600084815260200190815260200160002060000160008373ffffffffffffffffffffffffffffffffffffffff1673ffffffffffffffffffffffffffffffffffffffff16815260200190815260200160002060009054906101000a900460ff16905092915050565b600033905090565b612bb380620001b66000396000f3fe608060405234801561001057600080fd5b506004361061012b5760003560e01c806391d14854116100ad578063bb8c979711610071578063bb8c979714610350578063c310b8841461036c578063d547741f14610388578063e110c230146103a4578063f5b541a6146103c05761012b565b806391d14854146102ae57806393bc0a04146102de5780639870d7fe146102fa578063a217fddf14610316578063ac8a584a146103345761012b565b8063314ba296116100f4578063314ba296146101e457806336568abe146102145780633aecd0e31461023057806370480275146102605780638d6f4b971461027c5761012b565b8062f714ce1461013057806301ffc9a71461014c5780631785f53c1461017c578063248a9ca3146101985780632f2ff15d146101c8575b600080fd5b61014a60048036038101906101459190611a59565b6103de565b005b61016660048036038101906101619190611af1565b6104aa565b6040516101739190611b39565b60405180910390f35b61019660048036038101906101919190611b54565b610524565b005b6101b260048036038101906101ad9190611bb7565b610580565b6040516101bf9190611bf3565b60405180910390f35b6101e260048036038101906101dd9190611c0e565b61059f565b005b6101fe60048036038101906101f99190611d94565b6105c0565b60405161020b9190611bf3565b60405180910390f35b61022e60048036038101906102299190611c0e565b6107af565b005b61024a60048036038101906102459190611b54565b610832565b6040516102579190611dff565b60405180910390f35b61027a60048036038101906102759190611b54565b6108ba565b005b61029660048036038101906102919190611bb7565b610916565b6040516102a593929190611e29565b60405180910390f35b6102c860048036038101906102c39190611c0e565b610960565b6040516102d59190611b39565b60405180910390f35b6102f860048036038101906102f39190611e60565b6109ca565b005b610314600480360381019061030f9190611b54565b610a75565b005b61031e610aee565b60405161032b9190611bf3565b60405180910390f35b61034e60048036038101906103499190611b54565b610af5565b005b61036a60048036038101906103659190611ebc565b610b6e565b005b61038660048036038101906103819190611a59565b610df2565b005b6103a2600480360381019061039d9190611c0e565b610ea6565b005b6103be60048036038101906103b9919061209d565b610ec7565b005b6103c8610f90565b6040516103d59190611bf3565b60405180910390f35b6103eb6000801b33610960565b61042a576040517f08c379a000000000000000000000000000000000000000000000000000000000815260040161042190612169565b60405180910390fd5b8161043482610832565b1015610475576040517f08c379a000000000000000000000000000000000000000000000000000000000815260040161046c906121d5565b60405180910390fd5b60008190506104a533848373ffffffffffffffffffffffffffffffffffffffff16610fb49092919063ffffffff16565b505050565b60007f7965db0b000000000000000000000000000000000000000000000000000000007bffffffffffffffffffffffffffffffffffffffffffffffffffffffff1916827bffffffffffffffffffffffffffffffffffffffffffffffffffffffff1916148061051d575061051c8261103a565b5b9050919050565b6105316000801b33610960565b610570576040517f08c379a000000000000000000000000000000000000000000000000000000000815260040161056790612169565b60405180910390fd5b61057d6000801b82610ea6565b50565b6000806000838152602001908152602001600020600101549050919050565b6105a882610580565b6105b1816110a4565b6105bb83836110b8565b505050565b600080836040516020016105d4919061223d565b604051602081830303815290604052905060008390506000815183516105fa9190612287565b67ffffffffffffffff81111561061357610612611c69565b5b6040519080825280601f01601f1916602001820160405280156106455781602001600182028036833780820191505090505b50905060005b83518110156106c757838181518110610667576106666122dd565b5b602001015160f81c60f81b828281518110610685576106846122dd565b5b60200101907effffffffffffffffffffffffffffffffffffffffffffffffffffffffffffff1916908160001a90535080806106bf9061230c565b91505061064b565b5060005b8251811015610753578281815181106106e7576106e66122dd565b5b602001015160f81c60f81b828286516107009190612287565b81518110610711576107106122dd565b5b60200101907effffffffffffffffffffffffffffffffffffffffffffffffffffffffffffff1916908160001a905350808061074b9061230c565b9150506106cb565b5060028160405161076491906123cf565b602060405180830381855afa158015610781573d6000803e3d6000fd5b5050506040513d601f19601f820116820180604052508101906107a491906123fb565b935050505092915050565b6107b7611198565b73ffffffffffffffffffffffffffffffffffffffff168173ffffffffffffffffffffffffffffffffffffffff1614610824576040517f08c379a000000000000000000000000000000000000000000000000000000000815260040161081b9061249a565b60405180910390fd5b61082e82826111a0565b5050565b6000808290508073ffffffffffffffffffffffffffffffffffffffff166370a08231306040518263ffffffff1660e01b815260040161087191906124ba565b602060405180830381865afa15801561088e573d6000803e3d6000fd5b505050506040513d601f19601f820116820180604052508101906108b291906124ea565b915050919050565b6108c76000801b33610960565b610906576040517f08c379a00000000000000000000000000000000000000000000000000000000081526004016108fd90612169565b60405180910390fd5b6109136000801b8261059f565b50565b60016020528060005260406000206000915090508060000154908060010160009054906101000a900473ffffffffffffffffffffffffffffffffffffffff16908060020154905083565b600080600084815260200190815260200160002060000160008373ffffffffffffffffffffffffffffffffffffffff1673ffffffffffffffffffffffffffffffffffffffff16815260200190815260200160002060009054906101000a900460ff16905092915050565b6109d76000801b33610960565b80610a085750610a077f46a52cf33029de9f84853745a87af28464c80bf0346df1b32e205fc73319f62233610960565b5b610a47576040517f08c379a0000000000000000000000000000000000000000000000000000000008152600401610a3e90612589565b60405180910390fd5b6000610a5382846105c0565b9050426001600083815260200190815260200160002060020181905550505050565b610a826000801b33610960565b610ac1576040517f08c379a0000000000000000000000000000000000000000000000000000000008152600401610ab890612169565b60405180910390fd5b610aeb7f46a52cf33029de9f84853745a87af28464c80bf0346df1b32e205fc73319f6228261059f565b50565b6000801b81565b610b026000801b33610960565b610b41576040517f08c379a0000000000000000000000000000000000000000000000000000000008152600401610b3890612169565b60405180910390fd5b610b6b7f46a52cf33029de9f84853745a87af28464c80bf0346df1b32e205fc73319f62282610ea6565b50565b6000610b7a33836105c0565b9050600060016000838152602001908152602001600020604051806060016040529081600082015481526020016001820160009054906101000a900473ffffffffffffffffffffffffffffffffffffffff1673ffffffffffffffffffffffffffffffffffffffff1673ffffffffffffffffffffffffffffffffffffffff1681526020016002820154815250509050600062278d008260400151610c1d9190612287565b9050600081421115905080610cba57600160008581526020019081526020016000206000808201600090556001820160006101000a81549073ffffffffffffffffffffffffffffffffffffffff02191690556002820160009055505080610cb9576040517f08c379a0000000000000000000000000000000000000000000000000000000008152600401610cb09061261b565b60405180910390fd5b5b6000836020015190508360000151610cd58560200151610832565b1015610d16576040517f08c379a0000000000000000000000000000000000000000000000000000000008152600401610d0d90612687565b60405180910390fd5b600160008681526020019081526020016000206000808201600090556001820160006101000a81549073ffffffffffffffffffffffffffffffffffffffff021916905560028201600090555050610d923385600001518373ffffffffffffffffffffffffffffffffffffffff16610fb49092919063ffffffff16565b3373ffffffffffffffffffffffffffffffffffffffff167ff80b6d248ca65e589d3f24c7ce36e2df22ba16ba4e7656aad67e114abbe971d285600001518660200151604051610de29291906126a7565b60405180910390a2505050505050565b610dff6000801b33610960565b80610e305750610e2f7f46a52cf33029de9f84853745a87af28464c80bf0346df1b32e205fc73319f62233610960565b5b610e6f576040517f08c379a0000000000000000000000000000000000000000000000000000000008152600401610e6690612589565b60405180910390fd5b6000819050610ea13330858473ffffffffffffffffffffffffffffffffffffffff16611281909392919063ffffffff16565b505050565b610eaf82610580565b610eb8816110a4565b610ec283836111a0565b505050565b610ed46000801b33610960565b80610f055750610f047f46a52cf33029de9f84853745a87af28464c80bf0346df1b32e205fc73319f62233610960565b5b610f44576040517f08c379a0000000000000000000000000000000000000000000000000000000008152600401610f3b90612589565b60405180910390fd5b60005b8151811015610f8c576000828281518110610f6557610f646122dd565b5b60200260200101519050610f788161130a565b508080610f849061230c565b915050610f47565b5050565b7f46a52cf33029de9f84853745a87af28464c80bf0346df1b32e205fc73319f62281565b6110358363a9059cbb60e01b8484604051602401610fd39291906126d0565b604051602081830303815290604052907bffffffffffffffffffffffffffffffffffffffffffffffffffffffff19166020820180517bffffffffffffffffffffffffffffffffffffffffffffffffffffffff83818316178352505050506113f7565b505050565b60007f01ffc9a7000000000000000000000000000000000000000000000000000000007bffffffffffffffffffffffffffffffffffffffffffffffffffffffff1916827bffffffffffffffffffffffffffffffffffffffffffffffffffffffff1916149050919050565b6110b5816110b0611198565b6114be565b50565b6110c28282610960565b61119457600160008084815260200190815260200160002060000160008373ffffffffffffffffffffffffffffffffffffffff1673ffffffffffffffffffffffffffffffffffffffff16815260200190815260200160002060006101000a81548160ff021916908315150217905550611139611198565b73ffffffffffffffffffffffffffffffffffffffff168173ffffffffffffffffffffffffffffffffffffffff16837f2f8788117e7eff1d82e926ec794901d17c78024a50270940304540a733656f0d60405160405180910390a45b5050565b600033905090565b6111aa8282610960565b1561127d57600080600084815260200190815260200160002060000160008373ffffffffffffffffffffffffffffffffffffffff1673ffffffffffffffffffffffffffffffffffffffff16815260200190815260200160002060006101000a81548160ff021916908315150217905550611222611198565b73ffffffffffffffffffffffffffffffffffffffff168173ffffffffffffffffffffffffffffffffffffffff16837ff6391f5c32d9c69d2a47ea670b442974b53935d1edc7fd64eb21e047a839171b60405160405180910390a45b5050565b611304846323b872dd60e01b8585856040516024016112a2939291906126f9565b604051602081830303815290604052907bffffffffffffffffffffffffffffffffffffffffffffffffffffffff19166020820180517bffffffffffffffffffffffffffffffffffffffffffffffffffffffff83818316178352505050506113f7565b50505050565b61131261197a565b6000611326836080015184600001516105c0565b9050826020015182600001818152505082606001518260400181815250508260400151826020019073ffffffffffffffffffffffffffffffffffffffff16908173ffffffffffffffffffffffffffffffffffffffff168152505081600160008381526020019081526020016000206000820151816000015560208201518160010160006101000a81548173ffffffffffffffffffffffffffffffffffffffff021916908373ffffffffffffffffffffffffffffffffffffffff16021790555060408201518160020155905050505050565b6000611459826040518060400160405280602081526020017f5361666545524332303a206c6f772d6c6576656c2063616c6c206661696c65648152508573ffffffffffffffffffffffffffffffffffffffff166115439092919063ffffffff16565b90506000815111156114b95780806020019051810190611479919061275c565b6114b8576040517f08c379a00000000000000000000000000000000000000000000000000000000081526004016114af906127fb565b60405180910390fd5b5b505050565b6114c88282610960565b61153f576114d58161155b565b6114e38360001c6020611588565b6040516020016114f49291906128fa565b6040516020818303038152906040526040517f08c379a0000000000000000000000000000000000000000000000000000000008152600401611536919061296d565b60405180910390fd5b5050565b606061155284846000856117c4565b90509392505050565b60606115818273ffffffffffffffffffffffffffffffffffffffff16601460ff16611588565b9050919050565b60606000600283600261159b919061298f565b6115a59190612287565b67ffffffffffffffff8111156115be576115bd611c69565b5b6040519080825280601f01601f1916602001820160405280156115f05781602001600182028036833780820191505090505b5090507f300000000000000000000000000000000000000000000000000000000000000081600081518110611628576116276122dd565b5b60200101907effffffffffffffffffffffffffffffffffffffffffffffffffffffffffffff1916908160001a9053507f78000000000000000000000000000000000000000000000000000000000000008160018151811061168c5761168b6122dd565b5b60200101907effffffffffffffffffffffffffffffffffffffffffffffffffffffffffffff1916908160001a905350600060018460026116cc919061298f565b6116d69190612287565b90505b6001811115611776577f3031323334353637383961626364656600000000000000000000000000000000600f861660108110611718576117176122dd565b5b1a60f81b82828151811061172f5761172e6122dd565b5b60200101907effffffffffffffffffffffffffffffffffffffffffffffffffffffffffffff1916908160001a905350600485901c94508061176f906129e9565b90506116d9565b50600084146117ba576040517f08c379a00000000000000000000000000000000000000000000000000000000081526004016117b190612a5f565b60405180910390fd5b8091505092915050565b606082471015611809576040517f08c379a000000000000000000000000000000000000000000000000000000000815260040161180090612af1565b60405180910390fd5b6000808673ffffffffffffffffffffffffffffffffffffffff16858760405161183291906123cf565b60006040518083038185875af1925050503d806000811461186f576040519150601f19603f3d011682016040523d82523d6000602084013e611874565b606091505b509150915061188587838387611891565b92505050949350505050565b606083156118f4576000835114156118ec576118ac85611907565b6118eb576040517f08c379a00000000000000000000000000000000000000000000000000000000081526004016118e290612b5d565b60405180910390fd5b5b8290506118ff565b6118fe838361192a565b5b949350505050565b6000808273ffffffffffffffffffffffffffffffffffffffff163b119050919050565b60008251111561193d5781518083602001fd5b806040517f08c379a0000000000000000000000000000000000000000000000000000000008152600401611971919061296d565b60405180910390fd5b604051806060016040528060008152602001600073ffffffffffffffffffffffffffffffffffffffff168152602001600081525090565b6000604051905090565b600080fd5b600080fd5b6000819050919050565b6119d8816119c5565b81146119e357600080fd5b50565b6000813590506119f5816119cf565b92915050565b600073ffffffffffffffffffffffffffffffffffffffff82169050919050565b6000611a26826119fb565b9050919050565b611a3681611a1b565b8114611a4157600080fd5b50565b600081359050611a5381611a2d565b92915050565b60008060408385031215611a7057611a6f6119bb565b5b6000611a7e858286016119e6565b9250506020611a8f85828601611a44565b9150509250929050565b60007fffffffff0000000000000000000000000000000000000000000000000000000082169050919050565b611ace81611a99565b8114611ad957600080fd5b50565b600081359050611aeb81611ac5565b92915050565b600060208284031215611b0757611b066119bb565b5b6000611b1584828501611adc565b91505092915050565b60008115159050919050565b611b3381611b1e565b82525050565b6000602082019050611b4e6000830184611b2a565b92915050565b600060208284031215611b6a57611b696119bb565b5b6000611b7884828501611a44565b91505092915050565b6000819050919050565b611b9481611b81565b8114611b9f57600080fd5b50565b600081359050611bb181611b8b565b92915050565b600060208284031215611bcd57611bcc6119bb565b5b6000611bdb84828501611ba2565b91505092915050565b611bed81611b81565b82525050565b6000602082019050611c086000830184611be4565b92915050565b60008060408385031215611c2557611c246119bb565b5b6000611c3385828601611ba2565b9250506020611c4485828601611a44565b9150509250929050565b600080fd5b600080fd5b6000601f19601f8301169050919050565b7f4e487b7100000000000000000000000000000000000000000000000000000000600052604160045260246000fd5b611ca182611c58565b810181811067ffffffffffffffff82111715611cc057611cbf611c69565b5b80604052505050565b6000611cd36119b1565b9050611cdf8282611c98565b919050565b600067ffffffffffffffff821115611cff57611cfe611c69565b5b611d0882611c58565b9050602081019050919050565b82818337600083830152505050565b6000611d37611d3284611ce4565b611cc9565b905082815260208101848484011115611d5357611d52611c53565b5b611d5e848285611d15565b509392505050565b600082601f830112611d7b57611d7a611c4e565b5b8135611d8b848260208601611d24565b91505092915050565b60008060408385031215611dab57611daa6119bb565b5b6000611db985828601611a44565b925050602083013567ffffffffffffffff811115611dda57611dd96119c0565b5b611de685828601611d66565b9150509250929050565b611df9816119c5565b82525050565b6000602082019050611e146000830184611df0565b92915050565b611e2381611a1b565b82525050565b6000606082019050611e3e6000830186611df0565b611e4b6020830185611e1a565b611e586040830184611df0565b949350505050565b60008060408385031215611e7757611e766119bb565b5b600083013567ffffffffffffffff811115611e9557611e946119c0565b5b611ea185828601611d66565b9250506020611eb285828601611a44565b9150509250929050565b600060208284031215611ed257611ed16119bb565b5b600082013567ffffffffffffffff811115611ef057611eef6119c0565b5b611efc84828501611d66565b91505092915050565b600067ffffffffffffffff821115611f2057611f1f611c69565b5b602082029050602081019050919050565b600080fd5b600080fd5b600080fd5b600060a08284031215611f5657611f55611f36565b5b611f6060a0611cc9565b9050600082013567ffffffffffffffff811115611f8057611f7f611f3b565b5b611f8c84828501611d66565b6000830152506020611fa0848285016119e6565b6020830152506040611fb484828501611a44565b6040830152506060611fc8848285016119e6565b6060830152506080611fdc84828501611a44565b60808301525092915050565b6000611ffb611ff684611f05565b611cc9565b9050808382526020820190506020840283018581111561201e5761201d611f31565b5b835b8181101561206557803567ffffffffffffffff81111561204357612042611c4e565b5b8086016120508982611f40565b85526020850194505050602081019050612020565b5050509392505050565b600082601f83011261208457612083611c4e565b5b8135612094848260208601611fe8565b91505092915050565b6000602082840312156120b3576120b26119bb565b5b600082013567ffffffffffffffff8111156120d1576120d06119c0565b5b6120dd8482850161206f565b91505092915050565b600082825260208201905092915050565b7f4f6e6c792061646d696e2063616e206578656375746520746869732066756e6360008201527f74696f6e00000000000000000000000000000000000000000000000000000000602082015250565b60006121536024836120e6565b915061215e826120f7565b604082019050919050565b6000602082019050818103600083015261218281612146565b9050919050565b7f496e73756666696369656e742066756e64730000000000000000000000000000600082015250565b60006121bf6012836120e6565b91506121ca82612189565b602082019050919050565b600060208201905081810360008301526121ee816121b2565b9050919050565b60008160601b9050919050565b600061220d826121f5565b9050919050565b600061221f82612202565b9050919050565b61223761223282611a1b565b612214565b82525050565b60006122498284612226565b60148201915081905092915050565b7f4e487b7100000000000000000000000000000000000000000000000000000000600052601160045260246000fd5b6000612292826119c5565b915061229d836119c5565b9250827fffffffffffffffffffffffffffffffffffffffffffffffffffffffffffffffff038211156122d2576122d1612258565b5b828201905092915050565b7f4e487b7100000000000000000000000000000000000000000000000000000000600052603260045260246000fd5b6000612317826119c5565b91507fffffffffffffffffffffffffffffffffffffffffffffffffffffffffffffffff82141561234a57612349612258565b5b600182019050919050565b600081519050919050565b600081905092915050565b60005b8381101561238957808201518184015260208101905061236e565b83811115612398576000848401525b50505050565b60006123a982612355565b6123b38185612360565b93506123c381856020860161236b565b80840191505092915050565b60006123db828461239e565b915081905092915050565b6000815190506123f581611b8b565b92915050565b600060208284031215612411576124106119bb565b5b600061241f848285016123e6565b91505092915050565b7f416363657373436f6e74726f6c3a2063616e206f6e6c792072656e6f756e636560008201527f20726f6c657320666f722073656c660000000000000000000000000000000000602082015250565b6000612484602f836120e6565b915061248f82612428565b604082019050919050565b600060208201905081810360008301526124b381612477565b9050919050565b60006020820190506124cf6000830184611e1a565b92915050565b6000815190506124e4816119cf565b92915050565b600060208284031215612500576124ff6119bb565b5b600061250e848285016124d5565b91505092915050565b7f4f6e6c792061646d696e206f72206f70657261746f722063616e20657865637560008201527f746520746869732066756e6374696f6e00000000000000000000000000000000602082015250565b60006125736030836120e6565b915061257e82612517565b604082019050919050565b600060208201905081810360008301526125a281612566565b9050919050565b7f546869732072657761726420697320736f206f6c6420746f2067657420636c6160008201527f696d656400000000000000000000000000000000000000000000000000000000602082015250565b60006126056024836120e6565b9150612610826125a9565b604082019050919050565b60006020820190508181036000830152612634816125f8565b9050919050565b7f696e73756666696369656e7420746f6b656e2062616c616e6365000000000000600082015250565b6000612671601a836120e6565b915061267c8261263b565b602082019050919050565b600060208201905081810360008301526126a081612664565b9050919050565b60006040820190506126bc6000830185611df0565b6126c96020830184611e1a565b9392505050565b60006040820190506126e56000830185611e1a565b6126f26020830184611df0565b9392505050565b600060608201905061270e6000830186611e1a565b61271b6020830185611e1a565b6127286040830184611df0565b949350505050565b61273981611b1e565b811461274457600080fd5b50565b60008151905061275681612730565b92915050565b600060208284031215612772576127716119bb565b5b600061278084828501612747565b91505092915050565b7f5361666545524332303a204552433230206f7065726174696f6e20646964206e60008201527f6f74207375636365656400000000000000000000000000000000000000000000602082015250565b60006127e5602a836120e6565b91506127f082612789565b604082019050919050565b60006020820190508181036000830152612814816127d8565b9050919050565b600081905092915050565b7f416363657373436f6e74726f6c3a206163636f756e7420000000000000000000600082015250565b600061285c60178361281b565b915061286782612826565b601782019050919050565b600081519050919050565b600061288882612872565b612892818561281b565b93506128a281856020860161236b565b80840191505092915050565b7f206973206d697373696e6720726f6c6520000000000000000000000000000000600082015250565b60006128e460118361281b565b91506128ef826128ae565b601182019050919050565b60006129058261284f565b9150612911828561287d565b915061291c826128d7565b9150612928828461287d565b91508190509392505050565b600061293f82612872565b61294981856120e6565b935061295981856020860161236b565b61296281611c58565b840191505092915050565b600060208201905081810360008301526129878184612934565b905092915050565b600061299a826119c5565b91506129a5836119c5565b9250817fffffffffffffffffffffffffffffffffffffffffffffffffffffffffffffffff04831182151516156129de576129dd612258565b5b828202905092915050565b60006129f4826119c5565b91506000821415612a0857612a07612258565b5b600182039050919050565b7f537472696e67733a20686578206c656e67746820696e73756666696369656e74600082015250565b6000612a496020836120e6565b9150612a5482612a13565b602082019050919050565b60006020820190508181036000830152612a7881612a3c565b9050919050565b7f416464726573733a20696e73756666696369656e742062616c616e636520666f60008201527f722063616c6c0000000000000000000000000000000000000000000000000000602082015250565b6000612adb6026836120e6565b9150612ae682612a7f565b604082019050919050565b60006020820190508181036000830152612b0a81612ace565b9050919050565b7f416464726573733a2063616c6c20746f206e6f6e2d636f6e7472616374000000600082015250565b6000612b47601d836120e6565b9150612b5282612b11565b602082019050919050565b60006020820190508181036000830152612b7681612b3a565b905091905056fea2646970667358221220c0c09ebdf948b60f964fc37aec762eddb906d3a9ec3ae5ed6711ffb016805ad664736f6c634300080b0033",
  "linkReferences": {},
  "deployedLinkReferences": {}
}